:020000040000fa
:080000000001040000000000f3
:020000040000fa
:100008009401000094010000940100009401000094
:100018009401000094010000940100009401000084
:10002800940100009401000094010000aa1c000043
:100038009401000094010000721c0000940100006b
:10004800940100006a1d000094010000d81c000003
:100058009401000094010000940100009401000044
:100068009401000094010000940100009401000034
:100078009401000094010000940100009401000024
:100088009401000094010000940100009401000014
:100098009401000094010000940100009401000004
:1000a80094010000940100009401000094010000f4
:1000b80094010000940100009401000094010000e4
:1000c80094010000940100009401000094010000d4
:1000d80094010000940100009401000094010000c4
:1000e80094010000940100009401000094010000b4
:0800f8009401000094010000d6
:020000040000fa
:100108009401000094010000940100009401000093
:100118009401000094010000940100009401000083
:10012800940100009401000094010000aa1c000042
:100138009401000094010000721c0000940100006a
:10014800940100006a1d000094010000d81c000002
:100158009401000094010000940100009401000043
:100168009401000094010000940100009401000033
:100178009401000094010000940100009401000023
:100188009401000094010000940100009401000013
:100198009401000094010000940100009401000003
:1001a80094010000940100009401000094010000f3
:1001b80094010000940100009401000094010000e3
:1001c80094010000940100009401000094010000d3
:1001d80094010000940100009401000094010000c3
:1001e80094010000940100009401000094010000b3
:0801f8009401000094010000d5
:020000040000fa
:10020000cf8320000eff20000e01880000000000b8
:1002100000012000200288000c000700e00f2200ef
:100220000100200011000700000020000000e00095
:10023000020032000000020000000000161f020051
:10024000000000000040da000000fe004440a90069
:10025000e0df20000000e00003003200000020008a
:10026000a00188004440a800000006009101880019
:10027000800078000000eb0015003700e2804000ad
:1002800032a0b4009101ba00e280400032a0b40074
:100290009102ba00e280400032a0b4000002eb00fc
:1002a000472bde00f507b200602ce10004003a00a5
:1002b0000059eb008301e900fdff3e000400370018
:1002c0006128e100010032000082eb000400070019
:1002d0001101ba000200e000e8ff3a000000060049
:1002e0003159ba008301e9000c0032002159ba00eb
:1002f0008301e900080032000400e00003003a0036
:10030000e280400032a0b400f5ff370011d9ba00f6
:100310008301e900faff3a008100e800e180400033
:1003200032a0b400000006000040da000000fe0029
:10033000889fbe008a9fbe008c1f7800990007002e
:10034000a000330003866c006450e1002e003200f0
:100350006420e100330032006150e1002f003200e0
:100360006120e1003100320085855500eb07b000c7
:10037000090020000804200005003700080444009c
:1003800089844c000a0031000603430087834b0038
:100390000001530081815b00f8ff33000203be00bf
:1003a0000800a0000804440089844c00f6ff3900ce
:1003b000c639dd0083017300010032001300200004
:1003c0008904d1000884d3000998a30005003200f5
:1003d0000800a7000300a0008904d1000884d3000e
:1003e0008b05e8008904d1000884d3000001eb00ec
:1003f0000281d2003000070001f0a1000cf0a7003c
:1004000001f0a000780037006420e1007a0032009b
:100410000801be000200be00f7ff37006120e100c6
:10042000750032006000b800f3ff370000002000c4
:1004300001f82700f0ff37000001be00440007006c
:100440000470a70003f0a10003f8a30013003a0012
:100450006509b10010003200090035006928e1008b
:1004600002003500010028000000050000004000e7
:10047000818048008502e900fcff3a000000060088
:10048000f88f4200050035008100d1000080d300c4
:100490008502e800fcff3a00000006008000eb0047
:1004a000000005004f89de008201780089003700d6
:1004b0006011b8009700370081002000618055006e
:1004c0000b003d000b00200061fe2f000100e10049
:1004d0001d00340082817100610164008904d10033
:1004e0000884d3000000e800faff3a007100200001
:1004f0006100640003007000020060000900320027
:1005000061044400e0844c000988a5000500320025
:100510008b05e8006808e10002003a008904d10078
:100520000884d300f20f20000258e10005003d00ce
:10053000c75ddd00f907b20089807500080078000a
:10054000000006000bf827008b0078000000050073
:10055000c70ade00f107b200f50fb2000800320052
:10056000e1cf4200020032000170a000240005002b
:10057000810f7000010032000408050044000500ee
:10058000810f700002003a00140005008502e900a6
:100590000000400081c04800fcff3b000170a0004b
:1005a000240005000004be00e9ff07000003be00b0
:1005b0000405be000200be00e5ff0700844f750081
:1005c000000006000200be006450e1000500360095
:1005d0006420e100020036000968a30001003a002f
:1005e0000800be000160a0004f0678004f05be0065
:1005f0004f04be0000000600f0ff2f00f1ff2700af
:10060000f9ff3700889fbe008a9fbe008c1f7800cc
:10061000e4ff0700ebff330003866c006450e10049
:10062000240032006420e100270032006150e10024
:10063000220032006120e100210032008b8542005f
:10064000eb07b1000134b800003ab80008044200da
:1006500089844a00013ab8000030b8008880400020
:1006600009014a0004003300000040008180480076
:10067000020149008b05e900c909dd008301700012
:100680000100320013002000c814de004814dd0011
:100690004709de001200b200c808de0008847000be
:1006a00085ff070001f0a1000cf0a70001f0a000f9
:1006b000cdff37006120e100cfff32000801be000e
:1006c0000200be00f7ff37006150e100fcff3a0076
:1006d000c9ff3700881f7800030478000300e0009a
:1006e00007003d0060001000e08018006001190064
:1006f000e081190002003b0001f02d0003003700eb
:100700000400070008f0a70001f0a0004f047800e3
:1007100000000600889fbe008a9fbe000082700015
:100720000402710004827100260032000004be0041
:100730000200be006011b8006b0920009502200085
:100740000182cf000a0039000541b1000082cf00cc
:10075000070039000541b1000982cf0004003900cb
:100760000541b1000882cf00010039000541b10008
:1007700005425200120032000a003b0082817100e3
:10078000610164008100d1000080d3008984d3001e
:100790000884d3008b05e8000442e800f7ff3a0024
:1007a000070037000804440089844c00000048001a
:1007b000818048008b05e9000442e900f9ff3a0016
:1007c0003dff07004f05be004f04be0000000600bd
:020000040000fa
:1007d0000000000000000000000000000000000019
:1007e0000000000000000000000000000000000009
:1007f000000000003eff0000ff3e0000000000007f
:1008000000000000000d00000d00000000000000ce
:1008100000040000070300000004000007030000bc
:1008200000000000000000000000000000000000c8
:1008300010fe0000fe10000010fe0000fe10000080
:10084000010f00000f010000010f00000f01000068
:100850001c3e000022ff0000ff420000ce8c000082
:1008600003070000040f00000f040000070300004e
:100870000000000006c60000f03c00000e02000070
:10088000000400000703000000060000060000004e
:100890001e3f0000e1c10000412100003f1e00009a
:1008a000060f0000090900000b0c00001e160000d6
:1008b000000000000407000003000000000000002a
:1008c0000000000000000000000000000000000028
:1008d00000000000f8fe000007010000000000001a
:1008e00000000000000700000e08000000000000eb
:1008f0000000000001070000fef8000000000000fa
:1009000000000000080e00000701000000000000c9
:1009100020a80000f870000070f80000a820000077
:1009200000000000000000000000000000000000c7
:100930002020000020fc0000fc20000020200000ff
:1009400000000000000100000100000000000000a5
:100950000000000000000000000000000000000097
:1009600000000000203c00001c000000000000000f
:100970002020000020200000202000002020000077
:100980000000000000000000000000000000000067
:100990000000000000000000000000000000000057
:1009a00000000000000c00000c000000000000002f
:1009b0000000000000c00000f03c00000f03000039
:1009c000000c00000f030000000000000000000009
:1009d000feff00000101000001010000fffe000019
:1009e000070f000008080000080800000f070000bb
:1009f0000004000006ff0000ff00000000000000ef
:100a000000080000080f00000f08000008000000a8
:100a10000203000081c10000613100001f0e0000d0
:100a20000e0f00000908000008080000080c000074
:100a3000020300000121000021210000ffde000070
:100a4000040c000008080000080800000f07000060
:100a5000e0f00000988c000086ff0000ff0000001e
:100a60000000000000000000080f00000f08000058
:100a70003f3f00002121000021210000e1c10000d2
:100a8000040c000008080000080800000f07000020
:100a9000fcfe00002321000021210000e0c0000036
:100aa000070f000008080000080800000f070000fa
:100ab0000303000001810000e17900001f0700002e
:100ac00000000000000f00000f0000000000000008
:100ad000deff00002121000021210000ffde0000d8
:100ae000070f000008080000080800000f070000ba
:100af0001e3f00002121000021210000fffe000018
:100b00000008000008080000080c000007030000af
:100b100000000000001800001800000000000000a5
:100b200000000000000600000600000000000000b9
:100b30000000000000180000180000000000000085
:100b400000000000101e00000e0000000000000069
:100b500040e00000b01800000c0600000200000099
:100b60000000000001030000060c00000800000067
:100b700000a00000a0a00000a0a00000a0000000b5
:100b80000000000000000000000000000000000065
:100b900000020000060c000018b00000e040000059
:100ba000000800000c060000030100000000000027
:100bb0000203000001c10000e13100001f0e00002f
:100bc00000000000000d00000d000000000000000b
:100bd0000203000001c10000e13100001f0e00000f
:100be00000000000000d00000d00000000000000eb
:100bf000f8fc00008683000083860000fcf80000fb
:100c00000f0f000000000000000000000f0f0000a8
:100c1000ffff00002121000021210000ffde000075
:100c20000f0f000008080000080800000f07000070
:100c3000fcfe0000030100000101000003060000ab
:100c4000030700000c080000080800000c06000064
:100c500001ff0000ff01000001030000fefc000096
:100c6000080f00000f080000080c00000703000038
:100c700001ff0000ff2100002171000003030000bc
:100c8000080f00000f080000080800000c0c00000e
:100c900001ff0000ff21000021710000030300009c
:100ca000080f00000f080000000000000000000016
:100cb000fcfe00000301000041410000c3c600002b
:100cc000030700000c08000008080000070f0000e0
:100cd000ffff00002020000020200000ffff000098
:100ce0000f0f000000000000000000000f0f0000c8
:100cf0000001000001ff0000ff01000001000000f2
:100d000000080000080f00000f08000008000000a5
:100d1000000000000000000001ff0000ff010000d3
:100d2000060e000008080000080f00000700000081
:100d300001ff0000ff700000d88c000007030000d6
:100d4000080f00000f000000000100000f0e00005f
:100d500001ff0000ff010000000000000000000093
:100d6000080f00000f080000080800000c0c00002d
:100d7000ffff00000c780000780c0000ffff00006f
:100d80000f0f000000000000000000000f0f000027
:100d9000ffff00001c38000070e00000ffff0000b3
:100da0000f0f000000000000000000000f0f000007
:100db000feff00000101000001010000fffe000035
:100dc000070f000008080000080800000f070000d7
:100dd00001ff0000ff210000212100003f1e000054
:100de000080f00000f0800000000000000000000d5
:100df000feff00000101000001010000fffe0000f5
:100e0000070f0000080e00001c3800002f0700002c
:100e100001ff0000ff21000021610000ff9e000093
:100e2000080f00000f080000000000000f0f000076
:100e30000e1f00003121000021610000c786000064
:100e4000060e000008080000080800000f07000058
:100e50000303000001ff0000ff0100000303000086
:100e600000000000080f00000f0800000000000054
:100e7000ffff00000000000000000000ffff000076
:100e8000070f000008080000080800000f07000016
:100e9000ffff00000000000000000000ffff000056
:100ea00001030000060c00000c0600000301000016
:100eb000ffff000000e00000e0000000ffff000076
:100ec000010f00000e030000030e00000f010000e0
:100ed000070f000098f00000f09800000f070000d6
:100ee0000e0f000001000000000100000f0e0000c6
:100ef0000f1f000030e00000e03000001f0f000076
:100f000000000000080f00000f08000000000000b3
:100f100003830000c1610000311900000f070000c9
:100f20000f0f000008080000080800000c0c00006b
:100f300000000000ffff00000101000000000000b1
:100f4000000000000f0f0000080800000000000073
:100f500055aa000055aa000055aa000055aa000095
:100f600055aa000055aa000055aa000055aa000085
:100f70000000000001010000ffff00000000000071
:100f800000000000080800000f0f00000000000033
:100f9000080c000006030000030600000c08000017
:100fa0000000000000000000000000000000000041
:100fb0000000000000000000000000000000000031
:100fc00010100000101000001010000010100000a1
:100fd00000000000080f00000700000000000000f3
:100fe0000000000000000000000000000000000001
:100ff000009000009090000090f00000e0000000e1
:10100000070f000008080000080700000f08000094
:1010100001ff0000ff10000010300000e0c00000e1
:10102000080f000007080000080800000f07000074
:10103000e0f0000010100000101000003020000050
:10104000070f000008080000080800000c0400005a
:10105000c0e000003010000011ff0000ff000000a1
:10106000070f000008080000080700000f08000034
:10107000e0f000009090000090900000f0e0000090
:10108000070f000008080000080800000c0400001a
:1010900000100000feff000011110000030200001c
:1010a000000800000f0f0000080000000000000012
:1010b000e0f000001010000010e00000f010000050
:1010c000276f000048480000487f00003f000000f4
:1010d00001ff0000ff20000010100000f0e0000001
:1010e000080f00000f000000000000000f0f0000bc
:1010f0000010000010f60000f600000000000000e4
:1011000000080000080f00000f08000008000000a1
:101110000000000010100000f6f6000000000000c3
:1011200030600000404000007f3f000000000000f1
:1011300001ff0000ffc00000c06000003010000090
:10114000080f00000f000000010300000e0c00005b
:101150000001000001ff0000ff000000000000008f
:1011600000080000080f00000f0800000800000041
:10117000f0f0000030e00000e0300000f0e000009f
:101180000f0f000000070000070000000f0f000015
:1011900010f00000e010000010100000f0e000006f
:1011a000000f00000f000000000000000f0f000003
:1011b000e0f000001010000010100000f0e000004f
:1011c000070f000008080000080800000f070000d3
:1011d00010f00000e010000010100000f0e000002f
:1011e000407f00007f480000080800000f07000053
:1011f000e0f000001010000010e00000f01000000f
:10120000070f000008080000487f00007f40000032
:1012100010f00000e010000010100000302000006e
:10122000000f00000f0000000000000000000000a0
:1012300060f000009090000090100000302000004e
:10124000040c000008080000090900000f06000057
:1012500010100000feff0000101000000000000051
:1012600000000000070f0000080c00000400000050
:10127000f0f000000000000000f00000f0000000ae
:10128000070f000008080000080700000f08000012
:10129000f0f000000000000000000000f0f000008e
:1012a00001030000060c00000c0600000301000012
:1012b000f0f000000080000080000000f0f000006e
:1012c000070f00000c070000070c00000f070000cc
:1012d0001030000060c00000c0600000301000004e
:1012e000080c000006030000030600000c080000c4
:1012f000f0f000000000000000000000f0f000002e
:10130000474f000048480000486800003f1f0000a9
:101310003030000010900000d0700000301000004d
:101320000c0e00000b090000080800000c0c000067
:10133000000000000000000000000000005f00004e
:10134000000000000007000000070000001400007b
:101350007f1400007f140000242a00007f2a000070
:1013600012230000130800006462000036490000e8
:10137000552200005000000005030000000000009e
:10138000001c00002241000000000000412200007b
:101390001c000000082a00001c2a000008080000a9
:1013a000083e000008080000005000003000000067
:1013b00000080000080800000808000000300000d5
:1013c00030000000002000001008000004020000af
:1013d0003e510000494500003e000000427f0000f1
:1013e0004000000042610000514900004621000019
:1013f000414500004b31000018140000127f00002e
:101400001027000045450000453900003c4a000017
:101410004949000030010000710900000503000087
:1014200036490000494900003606000049490000dd
:10143000291e0000003600003600000000000000f9
:1014400056360000000000000008000014220000d2
:101450004114000014140000141400004122000084
:1014600014080000000200000151000009060000fd
:1014700032490000794100003e7e00001111000059
:10148000117e00007f49000049490000363e0000ff
:1014900041410000412200007f4100004122000044
:1014a0001c7f000049490000494100007f090000fd
:1014b00009010000013e00004141000051320000de
:1014c0007f080000080800007f000000417f000046
:1014d0004100000020400000413f0000017f00006b
:1014e00008140000224100007f400000404000003e
:1014f000407f000002040000027f00007f04000023
:10150000081000007f3e000041410000413e000005
:101510007f09000009090000063e0000415100005b
:10152000215e00007f0900001929000046460000e6
:101530004949000049310000010100007f0100001d
:10154000013f000040400000403f00001f2000001d
:10155000402000001f7f000020180000207f0000b6
:101560006314000008140000630300000478000006
:1015700004030000615100004945000043000000e1
:10158000007f00004141000002040000081000003c
:1015900020410000417f0000000000000402000024
:1015a00001020000044000004040000040400000f4
:1015b000000100000204000000200000545400005c
:1015c000547800007f480000444400003838000090
:1015d0004444000044200000384400004448000017
:1015e0007f3800005454000054180000087e0000aa
:1015f000090100000208000014540000543c0000df
:101600007f0800000404000078000000447d000012
:101610004000000020400000443d000000000000a9
:101620007f10000028440000004100007f400000bf
:10163000007c000004180000047800007c08000012
:1016400004040000783800004444000044380000de
:101650007c1400001414000008080000141400009a
:10166000187c00007c08000004040000084800000a
:101670005454000054200000043f00004440000087
:10168000203c000040400000207c00001c200000a6
:10169000402000001c3c000040300000403c0000a6
:1016a0004428000010280000440c000050500000a6
:1016b000503c000044640000544c00004400000012
:1016c0000836000041000000000000007f0000001c
:1016d000000000004136000008000000080800007b
:1016e0002a1c0000080800001c2a0000080800004e
:1016f00000000000000000000000000000000000ea
:1017000000000000000000000000000000000000d9
:1017100000000000000000000000000000000000c9
:1017200000000000000000000000000000000000b9
:101b9000ffff0000ffff00007f7f00007f7f00004d
:101ba0007f7f00007f7f00007f7f00007f7f00003d
:101bb0007f7f00007f7f00007f7f00007f3f00006d
:101bc0001f1f00001f1f00001f1f00001f1f00001d
:101bd0001fdf0000ffff0000ffff0000ffff00000d
:101be000ffff0000ffff0000ffff0000ffff0000fd
:101bf000ffff0000ffff0000ffff0000ffff0000ed
:101c0000ffff0000ffff0000ffff0000ffff0000dc
:101c1000ffff0000ffff0000ffff0000ffff0000cc
:101c2000ffff0000ffff0000ffff0000ffff0000bc
:101c3000ffff0000ffff0000ffff0000ffff0000ac
:101c4000ffff0000ffff0000ffff0000ffff00009c
:101c5000ffff0000ffff0000ffff0000ffff00008c
:101c6000ff7f00007f7f00001f1f00001f1f00007c
:101c70000f0f000007070000070300000303000028
:101c80000303000003010000010000000000000049
:101c90000000000000000000000000000000000044
:101ca0000000000000000000000000000000000034
:101cb0000000000000000000000000000000000024
:101cc0000000000000000000000000000000000014
:101cd00001030000030300000303000007070000e6
:101ce000070f00000f0f00001f1f00003f7f0000c4
:101cf0007fff0000ffff0000ffff0000ffff00006c
:101d0000ffff0000ffff0000ffff0000ffff0000db
:101d1000ffff0000ffff0000ffff0000ffff0000cb
:101d2000ffff0000ffff0000ffff0000ffff0000bb
:101d3000ffff0000ffff0000ffff0000ffff0000ab
:101d4000ffff0000ffff0000ffff0000ffff00009b
:101d50003f1f00000f0f00000707000001000000f8
:101d60000000000000000000000000000000000073
:101d70000000000000000000000000000000000063
:101d8000000000008080000080c00000c0e0000073
:101d9000e0e00000e0f00000f0f00000f0f00000f3
:101da000f8f80000f8780000381800000000000083
:101db00000000000000000000000000000e0000043
:101dc000f0e00000e0e00000c0c00000c0800000c3
:101dd0008000000000000000000000000000000083
:101de00000000000000000000000000000000000f3
:101df000000000000000000000030000070f0000ca
:101e00000f1f00001f7f0000ffff0000ffff00000a
:101e1000ffff0000ffff0000ffff0000ffff0000ca
:101e2000ffff0000ffff0000ffff0000ffff0000ba
:101e3000ffff0000ffff0000ffff0000ffff0000aa
:101e4000ffff0000ffff0000ff3f00000f01000048
:101e50000000000000000000000000000000000082
:101e60000000000000000000000000000000000072
:101e70000000000000c00000f0f80000f8fc0000c6
:101e8000ffff0000ffff0000ffff0000ffff00005a
:101e9000ffff0000ffff00007f3f00001f1f00004a
:101ea0000703000003000000000000000000000025
:101eb00000000000040400000607000007070000ff
:101ec00007070000070700000707000007070000da
:101ed00007070000060600000600000000000000e2
:101ee00000040000040400000404000000000000de
:101ef00000000000000000000000000000000000e2
:101f00000000000000000000011f0000ffff0000b3
:101f1000ffff0000ffff0000ffff0000ffff0000c9
:101f2000ffff0000ffff0000ffff0000ffff0000b9
:101f3000ffff0000ffff0000ffff0000ffff0000a9
:101f4000ffff0000ffff0000fff80000800000001e
:101f50000000000000000000000000000000000081
:101f60000000000000000000000000000000000071
:101f700000000000000700003f7f00007fff00001e
:101f8000ffff0000ffff0000ffff0000ff7f0000d9
:101f90007f3f00000f030000000000000000000071
:101fa0000000000000800000201800000c0f00005e
:101fb0000f0f00000f0f00000f0f00000f0f0000a9
:101fc0000703000000000000000000000000000007
:101fd00080c00000f8fe0000fe7f00001f1f000010
:101fe00007e00000fcff0000ffff00001f030000ef
:101ff00003000000000000000000000000000000de
:10200000000000000000000000c00000ffff000012
:10201000ffff0000ffff0000ffff0000ffff0000c8
:10202000ffff0000ffff0000ffff0000ffff0000b8
:10203000ffff0000ffff0000ffff0000ffff0000a8
:10204000ffff0000ffff0000ffff0000ffff000098
:10205000f8e00000c0c00000808000000000000028
:102060000000000000000000000000000000000070
:102070000000000000000000000000000000000060
:10208000010100000307000007030000000000003a
:102090000000000000000000802000003030000040
:1020a0007c7e00007e7e00007e7e00007e7e000042
:1020b0001e060000020200000000000000000000f8
:1020c0000000000000800000c8c80000e6e7000033
:1020d000f3f30000797c00007c3c00001f1f00002f
:1020e0001f070000030300000100000000000000c3
:1020f00000000000000000000000000080800000e0
:10210000e0e00000e0f80000feff0000ffff00003c
:10211000ffff0000ffff0000ffff0000ffff0000c7
:10212000ffff0000ffff0000ffff0000ffff0000b7
:10213000ffff0000ffff0000ffff0000ffff0000a7
:10214000ffff0000ffff0000ffff0000ffff000097
:10215000ffff0000ffff0000ffff0000fefe000089
:10216000fcfc0000f8f80000f0f00000f0e00000d7
:10217000e0c00000c0c000008000000000000000bf
:10218000000000000000000000000000000000004f
:102190000000000000000000070700000707000023
:1021a0000707000007070000070700000300000002
:1021b000000000000000000000000000000000001f
:1021c0000002000003010000010100000100000006
:1021d00000000000000000000000000080800000ff
:1021e000c0c00000e0e00000e0f00000f0f80000f7
:1021f000f8fc0000fcfc0000feff0000ffff0000f8
:10220000ffff0000ffff0000ffff0000ffff0000d6
:10221000ffff0000ffff0000ffff0000ffff0000c6
:10222000ffff0000ffff0000ffff0000ffff0000b6
:10223000ffff0000ffff0000ffff0000ffff0000a6
:10224000ffff0000ffff0000ffff0000ffff000096
:10225000ffff0000ffff0000ffff0000ffff000086
:10226000ffff0000ffff0000ffff0000ffff000076
:10227000ffff0000ffff0000ffff0000ffff000066
:10228000ffff0000fefe0000fefe0000fcfc000060
:10229000fcfc0000fcfc0000fcfc0000e0e0000096
:1022a000e0e00000e0e00000e0e00000f0f8000006
:1022b000f8f80000fcfc0000fcfc0000fcfc000046
:1022c000fcfc0000fcfc0000fcfc0000fefe00002a
:1022d000fefe0000ffff0000ffff0000ffff000008
:1022e000ffff0000ffff0000ffff0000ffff0000f6
:1022f000ffff0000ffff0000ffff0000ffff0000e6
:10230000ffff0000ffff0000ffff0000ffff0000d5
:10231000ffff0000ffff0000ffff0000ffff0000c5
:10232000ffff0000ffff0000ffff0000ffff0000b5
:10233000dc0000003a0e0000080200007a0d0000e8
:10234000504f00005a4100005200000031000000d0
:102350003200000048690000746e00006f6f0000da
:1023600021200000536100006c6a000069740000c5
:1023700065200000504f00004d4f00004321000039
:10238000004c0000617a00006e61000020750000c2
:102390007a620000756e000061210000205a000082
:1023a000656e000069200000697a0000676f000018
:1023b000726900006f2000006b6f00006c6100000c
:0c23c000632000003a2f00000000000025
:020000040000fa
:1023cc000200fa00004f78001e427800e04f5200e5
:1023dc0005003200151780000402200004827200f0
:1023ec00141788000400370015178000f4fd2f0027
:1023fc0004826200141788000080fa0000000600b6
:10240c000200fa00004f78001e427800e04f5200a4
:10241c0004003200141780000440a0001417880038
:10242c000400370015178000f4fe2f0004826200b0
:10243c00141788000080fa00000006000200fa0061
:10244c00004f78001e427800e04f5200040032002a
:10245c00141780000410a000141788000400370023
:10246c0015178000d4ff2f00048262001417880017
:10247c000080fa00000006000200fa00004f78000d
:10248c001e427800e04f5200040032001417800006
:10249c000400a000141788000400370015178000f2
:1024ac00e4ff2f0004826200141788000080fa00f9
:1024bc00000006000200fa00004f78001e4278006f
:1024cc00e04f520005003200551680000402200037
:1024dc0004827200541688000400370055168000e0
:1024ec00f4fd2f0004826200541688000080fa006c
:1024fc00000006000200fa00004f78001e4278002f
:10250c00e04f520004003200541680000440a0003a
:10251c00541688000400370055168000f4fe2f0076
:10252c0004826200541688000080fa000000060045
:10253c000000fa00dea2a900de82a900de22a900ba
:10254c00de02a900a8a2a800c6a2a900a882a80021
:10255c00c682a900a802a800c602a900a822a80049
:10256c00c622a900a842a800c642a900a862a800d9
:10257c00c662a900d202a900d222a900d242a900a7
:10258c00d262a9000080fa00000006000200fa00e6
:10259c00004f78001e427800e04f520008003a00cd
:1025ac00d202a900d222a900d242a900d262a9006b
:1025bc00c662a900c642a900c622a900c602a9008b
:1025cc001e427800e14f520008003a00d202a800e7
:1025dc00d222a800d242a800d262a800c662a800eb
:1025ec00c642a800c622a800c602a8000080fa00b5
:1025fc00000006000400fa00204798002e429000cc
:10260c00044f7800b516800004ff2f00048262008e
:10261c00b41688005516800004ff2f000482620057
:10262c00541688009e4278006fc2620014479800ce
:10263c001e4290008482fb005416800004827200bb
:10264c00541688009e4278000582fb004422de006e
:10265c00044f78001e4278008482fb00b416800080
:10266c0004827200b41688000080fa000000060094
:10267c000200fa00a4168000044f78001e42780075
:10268c00450020000522dd00044f78004416800030
:10269c00144798001e4290006f4262001447980045
:1026ac001e4290001e424200144798001e429000a9
:1026bc00044078000080fa00000006000000fa00d8
:1026cc0010c0b3004eff07000040eb004cff0700aa
:1026dc000080fa00000006000200fa00004f7800ab
:1026ec000040eb0064ff07000040eb0053ff0700c5
:1026fc001e407800bfff0700f0ff07000080fa00c3
:10270c00000006000400fa00100798000002eb001d
:10271c00040f7800010037001e0fe8001e02900025
:10272c009e027800848f5200fbff39000080fa0073
:10273c00000006000200fa000040eb004eff07000c
:10274c0010c0b3003dff070010c0b3008fff07009f
:10275c0010c0b3002aff0700c5ff07000042780035
:10276c00044f78000040eb0025ff07000300370002
:10277c00bfff070000427800044f78001e4278002b
:10278c00e04f5200faff35000080fa00000006000e
:10279c000200fa00004f7800f4c3b3009e427800a8
:1027ac0084cf52000a003e0010c0b300390007006d
:1027bc0004c4b3001e42720004407800c6ff070038
:1027cc0014c0b300044078003ae8b7000f0037009b
:1027dc001e427800e04f52000c0035000040eb0028
:1027ec002c00070004ccb3001e4242008442780047
:1027fc0004c4b30004c2720004407800b6ff0700a2
:10280c000042eb00044078003ae8b7001e40780024
:10281c0038e8b7000080fa00000006000200fa0059
:10282c00004f78001e427800e74f520006003e0031
:10283c0084cbb3001e42720004407800a6ff070050
:10284c001e40780039e8b7000080fa00000006004e
:10285c000200fa00004f7800114798001e407800e3
:10286c00cbff07001e409000ecff07000080fa0031
:10287c00000006000200fa00004f780004ccb30000
:10288c001e4272000440780093ff07000080fa009b
:10289c00000006000200fa00004f78000040eb0038
:1028ac00f5fe07001e427800e04f52000c003a0083
:1028bc000040eb00e1fe070010c0b3000dff070065
:1028cc000040eb00fbfe0700f0c3b30082ff0700e3
:1028dc000042eb00044078003ae8b7000b003700e8
:1028ec000040eb00d5fe07000040eb0001ff0700a5
:1028fc0010c0b300effe0700f0c3b30076ff070073
:10290c0014c0b300044078003ae8b7000080fa0025
:10291c00000006000200fa0010c0b3001bff070005
:10292c0010c0b300d4fe070010c0b300c3fe0700f4
:10293c0062ff070010c0b300b1fe07004cff070098
:10294c0000427800044f78000040eb00acfe07001a
:10295c000040eb000dff07000040eb00c6fe070037
:10296c000040eb00b5fe07001e42780004407800e2
:10297c000080fa00000006000000fa000040eb00a6
:10298c001cff07000040eb00bbfe07000040eb0003
:10299c00aafe07000040eb0099fe07000040eb0088
:1029ac00d4fe07000040eb00c2fe070010c0b300cd
:1029bc0083fe0700a000200052ff07000040eb0040
:1029cc007ffe0700a00020004eff070010c0b300e0
:1029dc007bfe070010c0b300aeff0700e0c3b300de
:1029ec003dff070000ccb3003bff070080cbb300da
:1029fc0039ff070000c4b30037ff0700f0c3b30072
:102a0c0035ff07000040eb00a2ff0700e0c3b30056
:102a1c0031ff070000ccb3002fff070080cbb300c1
:102a2c002dff070000c4b3002bff0700f0c3b30059
:102a3c0029ff07000080fa00000006000200fa00df
:102a4c00004f780010c0b3008bfe07000040eb0075
:102a5c007afe07001e407800e6fe070017ff07000d
:102a6c000080fa00000006000200fa000042eb00b1
:102a7c00144798001d0037009e4090000040eb006a
:102a8c0073ff07000042eb00044f7800030037008f
:102a9c000040eb00e9ff07001e4fe800f4c3b30051
:102aac009e42780084cf5200f9ff36009e40900081
:102abc0000c4b30066ff07000042eb00044f78002f
:102acc00030037000040eb00dcff07001e4fe8005e
:102adc00f4c3b3009e42780084cf5200f9ff360055
:102aec001e4290000442e800144798001e429000d9
:102afc00e74f5200e0ff36000080fa0000000600ad
:102b0c000200fa000042eb00144798001d00370049
:102b1c009e4090000040eb004dff07000042eb0090
:102b2c00044f78000300370000c0eb00c3ff070020
:102b3c001e4fe800f4c3b3009e42780084cf5200cd
:102b4c00f9ff36009e40900000c4b30040ff070020
:102b5c000042eb00044f78000300370000c0eb008c
:102b6c00b6ff07001e4fe800f4c3b3009e42780086
:102b7c0084cf5200f9ff36001e4290000442e80058
:102b8c00144798001e429000e74f5200e0ff3600b9
:102b9c000080fa00000006000400fa0010079800fc
:102bac000042eb0014479800300037009e40900024
:102bbc000040eb0026ff07000042eb00044f7800ba
:102bcc000c0037001e4290000482fb00c722dd007f
:102bdc001e4378000682fb00048242009e02900095
:102bec0004824200144278000440780093ff0700ee
:102bfc001e4fe800f4c3b3009e42780084cf52000d
:102c0c00f0ff36009e40900000c4b30010ff070098
:102c1c000042eb00044f78000d0037001e4290007c
:102c2c000482fb00c722dd001e4378000682fb00f5
:102c3c00048242000404b0009e0290000482420010
:102c4c0014427800044078007cff07001e4fe80017
:102c5c00f4c3b3009e42780084cf5200efff3600dd
:102c6c001e4290000442e800144798001e42900057
:102c7c00e74f5200cdff36000080fa00000006003e
:102c8c000400fa0020479800314798000042eb00fe
:102c9c00044f78003e4290000482fb004322de0089
:102cac0004427800844078002e409000e8fe070033
:102cbc0018ff070000427800044f78003e42900055
:102ccc000482fb004322de0004427800844078003a
:102cdc002e409000defe07003e4290000482fb0076
:102cec006702620015002000042add00844278008f
:102cfc001e42780004c27200044078004fff0700a7
:102d0c000080fa00000006000400fa00204798003a
:102d1c00314798000042eb00044f78003e4290008f
:102d2c000482fb004322de000442780084407800d9
:102d3c002e409000c6fe0700f6fe07000042780009
:102d4c00044f78003e4290000482fb004322de00d8
:102d5c0004427800844078002e409000bcfe0700ae
:102d6c003e4290000482fb006702620015002000c6
:102d7c00042add000442780084c2ea001e42780076
:102d8c0004c26200044078002cff07000080fa00a7
:102d9c00000006000c00fa00004f9800114f98003c
:102dac00224f98000002eb00040f78000002eb00a9
:102dbc00140798000002eb00240798009e4a90002c
:102dcc000e4a900004c25200644798002e4a9000ac
:102ddc000482fb00140798002e4a90008482fb00aa
:102dec00e4ff2f0004aab90004027800630f42002c
:102dfc00740037001e029000844278001e4a900036
:102e0c0084c242002e029000044378000e4a9000c7
:102e1c0004424300854078000440780098ff070086
:102e2c001e029000044278009e4a900084c2520018
:102e3c002e029000044378000e4a90000442430096
:102e4c0085407800044078008dff07001e0290003a
:102e5c00844278001e4a900084c242002e029000e8
:102e6c00044278000e4b90000442530085407800d9
:102e7c000440780082ff07001e0290000442780094
:102e8c009e4a900084c252002e02900004427800a8
:102e9c000e4b9000044253008540780004407800ab
:102eac0077ff07002e029000844278001e4a9000a3
:102ebc0084c242001e029000044378001e4a900017
:102ecc00044343006e429000044253008540780056
:102edc00044078006aff07002e029000044278003c
:102eec009e4a900084c252001e0290000443780057
:102efc001e4a9000044343006e429000044253006b
:102f0c0085407800044078005dff07002e02900099
:102f1c00844278001e4a900084c242001e02900037
:102f2c00044278001e4b9000044353006e42900004
:102f3c0004425300854078000440780050ff07009d
:102f4c002e029000044278009e4a900084c25200e7
:102f5c001e029000044278001e4b90000443530064
:102f6c006e42900004425300854078000440780083
:102f7c0043ff07001e027800e00f520005003d00e1
:102f8c002e0290004222dd00660242001e0f42001b
:102f9c0009003700ae0290001e029000048252001d
:102fac004222dd006a0242001e0f42001e02900007
:102fbc000402e900140798002e0290000402e800b5
:102fcc0024079800ae0290001e029000848f5200dd
:102fdc0088ff34000080fa00000006000600fa00aa
:102fec002047980031479800424798005347980073
:102ffc000042eb00044f78000042eb00044f7800d5
:10300c000b0037002e4290001e424200be40900042
:10301c00044078001aff07002e4290001e42420026
:10302c00de4090000440780015ff07001e4fe800ba
:10303c001e4278008482fb004e4290000483fb0009
:10304c002e4290000482fb00040253000402e800ac
:10305c00848f5200ebff35000042eb00044f7800e8
:10306c000b0037003e4290001e4242008440780024
:10307c002e40900002ff07003e4290001e4242008c
:10308c00844078004e409000fdfe07001e4fe80083
:10309c001e4278008482fb005e4290000483fb0099
:1030ac003e4290000482fb00040253000402e8003c
:1030bc00848f5200ebff35000080fa000000060000
:1030cc000400fa0020479800848320001442780002
:1030dc000482fb00e5024200f4072000848f5200ba
:1030ec000f00340094832000144278000442e8005e
:1030fc000440780039e8b70094832000144278002b
:10310c00e74f5200030036000042eb000440780009
:10311c0039e8b7000042eb000440780038e8b7000b
:10312c009583200095427800848320001442780017
:10313c008540780004407800c5fd07000042eb0094
:10314c00044f78001a0037002e4290000402fb0056
:10315c006522b9000402780005f62f008482420033
:10316c001e4378000682fb000482420085992800e9
:10317c0065427a000440780030fe0700848320000a
:10318c00144278000442e8000440780038e8b700a4
:10319c0095832000954278008483200014427800a7
:1031ac008540780004407800a9fd07001e4fe80018
:1031bc001e427800e44f5200e3ff36000040eb0063
:1031cc001efe070084832000144278000442e800ad
:1031dc000440780038e8b7000080fa0000000600d0
:1031ec000400fa00204798008483200014427800e1
:1031fc000482fb00e8024200f4072000848f520096
:10320c001400340094832000144278000442e80037
:10321c000440780039e8b700948320001442780009
:10322c000442e8000440780039e8b7009483200099
:10323c0014427800e74f5200030036000042eb00c6
:10324c000440780039e8b7000042eb0004407800f5
:10325c0038e8b7000042eb00044f78005600370006
:10326c0095832000954278008483200014427800d6
:10327c00854078000440780075fd07002e429000d0
:10328c000402fb000402b100c422dd001e437800de
:10329c000682fb0004824200853e280065427a00cb
:1032ac0004407800e5fd0700948320001442780068
:1032bc000442e8008442780084cbb30004c272005c
:1032cc000440780004fd07008583200095427800b7
:1032dc00f4c3b30084cf52000c003e0010c0b30006
:1032ec006cfd0700858320009542780004c4b30070
:1032fc0004c2720004407800f7fc070014c0b3004d
:10330c00044078003ae8b7001200370084832000ac
:10331c0014427800e04f52000e0035000040eb00e4
:10332c005cfd0700858320009542780004ccb30037
:10333c0004c242008442780004c4b30004c2720088
:10334c0004407800e4fc07000042eb0004407800e5
:10335c003ae8b7002e4290000402fb000402b100d0
:10336c00c422dd001e4378000682fb00048242006a
:10337c0068024200853e280065427a0004407800cd
:10338c00aefd070084832000144278000442e8005c
:10339c000440780038e8b700958320009542780007
:1033ac008483200014427800854078000440780023
:1033bc0027fd07001e4fe8001e427800e74f520021
:1033cc00a7ff36000080fa00000006000200fa0099
:1033dc00000f7800050037001e02780014427800b8
:1033ec000440780036ff07001e0fe8001e0278002c
:1033fc0014427800e04f5200f7ff3a000080fa00c8
:10340c00000006000600fa00404798004e4290006b
:10341c000482fb00cfa2de000400be001ef40700f5
:10342c000002be006266260063fa23000400be00a0
:10343c00bcf307000002be000400be00fbf3070053
:10344c000002be00244798000042eb00044f7800b5
:10345c00140037002e4290001447980007003700e4
:10346c009e4090001e40780005fe07009e42900092
:10347c002e42900004c24200144798001e42900055
:10348c008482fb002e4290000482fb000604200084
:10349c0004025300848f5200f1ff35001e42780065
:1034ac00634f4200e4c7b3009e42780084cf5200c1
:1034bc00e8ff36004e42900004cfe9000f003700c1
:1034cc000042eb0014479800060037009e40900025
:1034dc001e407800eafd07001e42900004c2e8007e
:1034ec00144798009e429000e4c3b30084cf52006e
:1034fc00f6ff36004e4290001e4f4200b4c7b30098
:10350c009e42780084cf5200edff36000080fa0016
:10351c00000006000000fa00cda2a900cdc2a9004f
:10352c000080fa00000006000400fa001007980062
:10353c000002eb00040f7800010037001e0fe800ba
:10354c001e0290009e027800848f5200fbff39000f
:10355c000080fa00000006000400fa001007980032
:10356c000002eb00040f7800010037001e0fe8008a
:10357c001e0290009e027800848f5200fbff3900df
:10358c000080fa00000006000400fa001007980002
:10359c009e029000843e2000110009008482d80015
:1035ac0000027800044f780005c3b3001ec242002d
:1035bc0004407800c2fe07001e4078008082fb00a9
:1035cc0084c12f0004aab900040278009e02900066
:1035dc0004824200140798009e02900044062000ca
:1035ec00110009008482d80000027800044f780092
:1035fc0005c3b3001ec2420004407800b0fe0700b1
:10360c001e4078008082fb00c4f92f0004aab90088
:10361c00040278009e029000048242001407980075
:10362c009e029000a4002000110009008482d800a2
:10363c0000027800044f780005c3b3001ec242009c
:10364c00044078009efe07001e4078008082fb003c
:10365c0064ff2f0004aab900040278009e029000b7
:10366c0004824200140798001e0290000442780065
:10367c000443b0000440780091fe07000080fa007b
:10368c00000006000000fa0054012000a41088007d
:10369c000d42a9008d20a80075108000c4ff2f00da
:1036ac0004826200741088000de2a8000f42a8008a
:1036bc000080fa00000006000200fa00000f7800fb
:1036cc0000000000751080000410200004826200cd
:1036dc00e00f5200fbff32006410800066026200b3
:1036ec00e60f520003003a001e0278008410880096
:1036fc0003003700f40f20001e02620084108800c3
:10370c000080fa00000006000400fa001007980080
:10371c009e029000843e2000110009008482d80093
:10372c0000027800044f78009e4278000582fb006e
:10373c000403b00004007800dfff07001e4078008f
:10374c008082fb0084c12f0004aab9000402780017
:10375c009e02900004824200140798009e02900082
:10376c0044062000110009008482d8000002780071
:10377c00044f78009e4278000582fb000403b000e1
:10378c0004007800ccff07001e4078008082fb000c
:10379c00c4f92f0004aab900040278009e0290001c
:1037ac0004824200140798009e029000a40020009e
:1037bc00110009008482d80000027800044f7800c0
:1037cc009e4278000582fb000403b00004007800e0
:1037dc00b9ff07001e4078008082fb0064ff2f00b9
:1037ec0004aab900040278009e02900004824200f0
:1037fc00140798001e0290000403b0000400780027
:10380c00adff07000080fa00000006000400fa007b
:10381c00100798000002eb00040f78000800370036
:10382c001e0278009e02900004824200144278002e
:10383c000402fb00040078009fff07001e0fe80045
:10384c001e0278009e02900004824200144278000e
:10385c00e04f5200f2ff3a00d000200096ff070024
:10386c000080fa00000006000000fa008040eb0027
:10387c000040eb00f6fb0700001a2900d3fe0700fe
:10388c0051c0b30090c1b300f1fb0700601a2900ce
:10389c00cefe070051c0b30050c5b300ecfb0700cf
:1038ac00801a2900c9fe0700c3c3b300c2c3b3000a
:1038bc0031c2b30050c0b300c8fd0700c3c3b3008e
:1038cc0082c7b30031c2b30010c4b300c3fd0700fc
:1038dc000080fa0000000600849fbe003400f8004f
:1038ec0004002000a40188000000fa000002eb0094
:1038fc003408880014002000244188000441800012
:10390c000402e80004418800144180000402e8002d
:10391c001441880005418000843e2000848f5200b1
:10392c0004003a000002eb0004418800140020005f
:10393c003441880084c0a9000080fa003400f900ea
:10394c004f02be0000400600841f78003400f800cf
:10395c0004002000a40188000000fa000002eb0023
:10396c00040888008460a9000080fa003400f90083
:10397c004f027800004006000200fa00000f7800a9
:10398c000002eb0014418800000000009e02780049
:10399c0014418000848f5200fcff3e000080fa002e
:1039ac0000000600841f78003400f800040020009a
:1039bc00a40188000000fa00041480004440880030
:1039cc001414800054408800241480006440880043
:1039dc003414800074408800444080008440880087
:1039ec0054408000944088008560a9000080fa0053
:1039fc003400f9004f027800004006000000fa0085
:103a0c00cfa2a800cfc2a900d1a2a800d1c2a90000
:103a1c00401f2000d0fe0700844080002440880016
:103a2c00d1a2a900d1c2a800cfa2a900cfc2a800e0
:103a3c00401f2000c8fe07009440800034408800de
:103a4c0024408000140ab100050020000400be00d0
:103a5c0094f207000002be00324d2a0043d123002d
:103a6c000400be00e4f207000002be000400be0029
:103a7c006ef207000002be000402780004408800c9
:103a8c0034408000441fb100050020000400be003b
:103a9c0084f207000002be00a2772c0093ca230018
:103aac000400be00d4f207000002be000400be00f9
:103abc005ef207000002be00040278001440880089
:103acc000080fa00000006003400f800881f78001f
:103adc0008002000a80188004f0478000000fa00bc
:103aec008520a9000080fa003400f900004006008f
:103afc000000fa00c562a9000080fa000000060070
:103b0c000000fa007540800044242000848f52008d
:103b1c0008003c00c562a9000042eb00044078009c
:103b2c0016e8b7000042eb000440780036e8b70016
:103b3c00af0037007540800044242000848f520071
:103b4c003800340075408000c4302000848f52004f
:103b5c0034003c000517800004042000048262003d
:103b6c00e00f520028003200a4418000e10f520007
:103b7c000f003200e20f520018003200e00f52002a
:103b8c0021003a00d702a800a00020007aff07000d
:103b9c00d702a900e00b200077ff070014002000db
:103bac00a4418800803e200073ff070016003700f8
:103bbc00d702a800f00020006fff0700d702a90071
:103bcc00900b20006cff070024002000a44188000b
:103bdc00803e200068ff07000b003700d702a800ca
:103bec004001200064ff0700d702a900400b200011
:103bfc0061ff07000002eb00a4418800803e20001a
:103c0c005dff070000000000c562a80060042000f2
:103c1c0059ff0700c562a9008025200056ff070048
:103c2c007300370075408000c4302000848f520030
:103c3c003800340075408000f49c2000848f5200c2
:103c4c0034003c000042eb000440780036e8b7003a
:103c5c0064812000144278000404a200e04f52005a
:103c6c0025003200803e200043ff0700d702a80049
:103c7c00f000200040ff0700d702a900900b2000a5
:103c8c003dff0700d702a800f00020003aff070014
:103c9c00d702a900900b200037ff0700d702a8001d
:103cac00f000200034ff0700d702a900900b200081
:103cbc0031ff0700d702a800f00020002eff0700fc
:103ccc00d702a900900b20002bff0700d702a800f9
:103cdc00f000200028ff0700d702a900900b20005d
:103cec0025ff0700803e200023ff070014c0b3000f
:103cfc000440780016e8b700c562a800c003200095
:103d0c001dff0700c562a900800c20001aff0700e8
:103d1c003700370075408000f49c2000848f5200df
:103d2c00330034000042eb000440780016e8b70082
:103d3c0064832000144278000404a200e04f520077
:103d4c0025003200803e20000bff0700d702a800a0
:103d5c004001200008ff0700d702a900400b2000fb
:103d6c0005ff0700d702a8004001200002ff070052
:103d7c00d702a900400b2000fffe0700d702a800c5
:103d8c0040012000fcfe0700d702a900400b2000d8
:103d9c00f9fe0700d702a80040012000f6fe07003c
:103dac00d702a900400b2000f3fe0700d702a800a1
:103dbc0040012000f0fe0700d702a900400b2000b4
:103dcc00edfe0700803e2000ebfe070014c0b300a0
:103ddc000440780036e8b700c562a800c003200094
:103dec00e5fe0700c562a90040062000e2fe0700c0
:103dfc000080fa00000006000000fa006540800018
:103e0c00047d2000848f520002003400e282a8005e
:103e1c0001003700e282a9000080fa0000000600d1
:103e2c000400fa00000f780011079800c0f9070091
:103e3c00b8fd0700d0fa07000bfb0700fd000700d8
:103e4c00d322a800d302a800c162a9000dfe07006e
:103e5c007100070065000700a1e2a800c162a9007b
:103e6c00a8e2a800c6e2a900a822a800d302a900d3
:103e7c00a8c2a900c6c2a80090ff2f00a700070087
:103e8c000000eb00d4000700f440800084007800b0
:103e9c0090f82d00c00007004440a8008e80a900b7
:103eac00b40c80000400a1000410a1000420a100a7
:103ebc00b40c88008680a9000002eb00c440880086
:103ecc0003003700c44080000402e800c4408800ae
:103edc00c5408000f4c32900848f5200f9ff3600de
:103eec000002eb00c440880003003700c44080008f
:103efc000402e800c4408800c5408000f4c32900d7
:103f0c00848f5200f9ff36009bfa070056fe07001b
:103f1c00070037000000000005003700000000001b
:103f2c000300370000000000010037000000000013
:103f3c00f3fe0700b1fe070004408000e50f5200bd
:103f4c001400360005408000e4032000848f5200ea
:103f5c0010003e0014408000eb0f52000d003600a4
:103f6c001540800034032000848f520009003e006d
:103f7c00a01a290025fe070065408000f47c200073
:103f8c00848f520001003c00e282a800007d2000da
:103f9c0065fd07000540800004042000848f52005a
:103fac00dcff36000540800094072000848f52000f
:103fbc00daff3e0014408000eb0f5200d9ff3600b0
:103fcc001540800034032000848f5200d7ff3e0040
:103fdc00e282a900101c29000cfe0700c4fe070099
:103fec00803e20005cfd0700d1ff37000000fa0086
:103ffc00a902a900a922a900a962a900a942a900a5
:10400c00c702a800c722a800c762a800c742a80020
:10401c000080fa00000006000000fa00a1a2a9002e
:10402c00041580000480a1000490a10004158800f0
:10403c00041580000450a0000460a0000470a000cf
:10404c0004158800a022a8001415800004d0a0003c
:10405c0004e0a00004f0a00014158800a342a800fe
:10406c00141580000420a0000430a0000440a1001e
:10407c000450a10014158800a222a900a202a900d4
:10408c002515800004f0210004827200241588009c
:10409c00a4e2a8002515800004fc2f000482620015
:1040ac00f401b30024158800a782a900a682a900f8
:1040bc00341580000400a1000410a1000420a1000c
:1040cc000430a10034158800341580000480a10050
:1040dc000490a10004a0a10004b0a1003415880034
:1040ec000002eb004415880004f0200054158800f1
:1040fc00a042a8008560a8008d60a8000080fa008e
:10410c00000006000000fa008c60a90005e1a9007f
:10411c008460a9000080fa00000006000200fa008a
:10412c00000f78008460a9001e0278000442780019
:10413c006742620067426200674262000482fb00d1
:10414c00670262004c22dd00a6048000f5ff280007
:10415c008502630004827200a40488009e02780029
:10416c00688262004322de000442780061426200f1
:10417c000482fb00610262004322dd0066048000c1
:10418c0075ff2f00850263000482720064048800ae
:10419c000080fa00000006000400fa00000f78000e
:1041ac00110798000002eb00040888001e02900022
:1041bc00140888001e027800240888000080fa0089
:1041cc00000006000000fa000408800004007800db
:1041dc000080fa00000006000200fa00000f7800d0
:1041ec001e027800040888000080fa000000060017
:020000040000fa
:1041fc000008000028000000000000003408000047
:10420c00040000000200000000000000000000009c
:10421c00380800000400000002000000000000004c
:10422c0000000000280800000c0000000000000046
:04423c00000000007e
:020000040000fa
:104240000000fa000002eb0034088800d4142000bb
:10425000640888001021a90084c0a9008cc0a800af
:0c42600011e1a8000080fa000000060038
:020000040000fa
:0200000401f009
:04000000f5bf000048
:020000040000fa
:0200000401f009
:04000400ff7f00007a
:020000040000fa
:0200000401f009
:04001400ffff0000ea
:00000001FF
